:100000000C9454000C9473000C9473000C947300C3
:100010000C9473000C9473000C9473000C94730094
:100020000C9473000C9473000C9473000C94730084
:100030000C9473000C94EC000C9473000C947300FB
:100040000C9473000C9473000C9473000C94730064
:100050000C9473000C9473000C9473000C94730054
:100060000C9473000C9473000C9473000C94730044
:100070000C9473000C9473000C9473000C94730034
:100080000C9473000C9473000C9473006D0398032C
:10009000AF03B403BE03B903C30335043504E0035F
:1000A000EA03FE03F403080411241FBECFEFD0E4DB
:1000B000DEBFCDBF11E0A0E0B1E0ECE4F7E100E08D
:1000C0000BBF02C007900D92AC3FB107D9F722E0F9
:1000D000ACEFB1E001C01D92A533B207E1F70E9479
:1000E00050050C94A40B0C940000CF93DF9300D028
:1000F0001F92CDB7DEB789837B836A8389818A307B
:1001000031F48A819B81BC018DE00E94750080ECF6
:1001100090E0FC018081882F90E080729927892BE4
:10012000B1F386EC90E02981FC01208380E090E02F
:100130000F900F900F90DF91CF910895CF93DF93A1
:10014000CDB7DEB781E890E02BE0FC01208388E8A2
:1001500090E02DE730E0FC01318320838FE690E0D2
:1001600022E0FC01208384E890E0FC0111821082EF
:1001700080910E0190910F01A0911001B091110199
:100180008093FD019093FE01A093FF01B0930002C4
:100190008FE590E02FE530E0F90120812068FC0137
:1001A00020830000DF91CF910895CF93DF93CDB7E7
:1001B000DEB781E890E0FC0110820000DF91CF9172
:1001C0000895CF93DF93CDB7DEB781E08093FC0134
:1001D0000000DF91CF9108951F920F9200905F0071
:1001E0000F92112400905B000F922F933F934F9337
:1001F0005F936F937F938F939F93AF93BF93EF938F
:10020000FF93CF93DF93CDB7DEB78091FD0190913F
:10021000FE01A091FF01B09100020197A109B1096F
:100220008093FD019093FE01A093FF01B093000223
:100230008091FD019091FE01A091FF01B09100021B
:10024000892B8A2B8B2B91F40E94E10080910E0167
:1002500090910F01A0911001B09111018093FD01C7
:100260009093FE01A093FF01B09300020000DF9184
:10027000CF91FF91EF91BF91AF919F918F917F911E
:100280006F915F914F913F912F910F9000925B0082
:100290000F9000925F000F901F901895CF93DF93FF
:1002A00000D000D0CDB7DEB769837A838B839C837F
:1002B00089819A81AB81BC8180930E0190930F015B
:1002C000A0931001B093110180910E0190910F0144
:1002D000A0911001B09111018093FD019093FE0156
:1002E000A093FF01B093000200000F900F900F90B9
:1002F0000F90DF91CF9108950F931F93CF93DF93CA
:1003000000D000D0CDB7DEB769837A838B839C831E
:100310008091050290910602A0910702B091080217
:100320009C01AD0169817A818B819C810E94750954
:10033000882309F477C020E030E0A90169817A813F
:100340008B819C810E947509882351F481E990E09A
:1003500021E930E0F90120812870FC01208309C0E7
:1003600081E990E021E930E0F90120812360FC017E
:10037000208328E539E344E75FE369817A818B8153
:100380009C810E947509882344F488E990E02FEF4E
:100390003FEFFC013183208334C020E034E244EF9E
:1003A00056E469817A818B819C810E94970A181694
:1003B00034F488E990E0FC011182108222C008E93F
:1003C00010E020E030E040E053E469817A818B81E5
:1003D0009C810E949C0ADC01CB019C01AD0160E084
:1003E00074E284EF9AE40E947A09DC01CB01BC013B
:1003F000CD010E94EC09DC01CB010197F80191834A
:10040000808384E990E0FC011182108289819A81C5
:10041000AB81BC818093050290930602A0930702F2
:10042000B093080200000F900F900F900F90DF9193
:10043000CF911F910F910895CF93DF93CDB7DEB782
:1004400080E990E020E4FC01208381E990E02BE04A
:10045000FC01208360E070E0CB010E947C01000081
:10046000DF91CF910895CF93DF93CDB7DEB780E9C9
:1004700090E0FC01108281E990E0FC011082000014
:10048000DF91CF910895CF93DF93CDB7DEB72C974F
:100490000FB6F894DEBF0FBECDBF6D837E838F8312
:1004A000988729873A874B875C878D819E81AF81AA
:1004B000B88529853A854B855C85BC01CD010E94B4
:1004C0003609DC01CB0189839A83AB83BC838981A4
:1004D0009A81AB81BC81892B8A2B8B2B29F489854E
:1004E0009A85AB85BC8511C089859A85AB85BC850D
:1004F0008D839E83AF83B88789819A81AB81BC81CC
:1005000089879A87AB87BC87D0CFBC01CD012C9659
:100510000FB6F894DEBF0FBECDBFDF91CF91089527
:10052000CF93DF9300D0CDB7DEB79A8389838091D4
:10053000E101813021F40E94C5061092E101809111
:100540001601909117011816190624F480910102E2
:10055000882319F489819A8183C089819A810097BF
:1005600019F0019769F022C08091E001813029F4EF
:1005700081E090E09A83898319C01A82198216C09B
:100580002091E6013091E7018091120190911301D1
:100590008217930754F41092E0011A8219828FEFA8
:1005A0009FEF9093E7018093E601000089819A8193
:1005B000009709F452C0019709F050C08091E601FC
:1005C0009091E701019659F02091E6013091E70101
:1005D000809112019091130128173907A1F488E244
:1005E00090E02CE3FC0120838BE290E021EFFC0102
:1005F00020838091E6019091E70101969093E701B5
:100600008093E6012BC08091E6019091E701885E1E
:100610009E4FFC0180818093E8018091E6019091DA
:10062000E70184589E4FFC0180818093E90180910D
:10063000E6019091E70101969093E7018093E6012E
:1006400088E290E02091E801FC0120838BE290E0B9
:100650002091E901FC01208301C0000089819A8179
:100660000F900F90DF91CF910895CF93DF9300D03B
:100670001F92CDB7DEB79B838A8383E290E0FC01B3
:100680008081809589838091E001813019F48A818D
:100690009B8133C18091160190911701181619069C
:1006A00024F480910102882319F48A819B8125C159
:1006B0008A819B81092E000CAA0BBB0B40E050E005
:1006C00026E030E0841B950B2817390708F460C03A
:1006D0008A5B9F4FFC010C9458098981813029F471
:1006E00082E090E09B838A8356C08981823029F41E
:1006F00083E090E09B838A834EC08981843029F413
:1007000086E090E09B838A8346C08981883029F403
:1007100085E090E09B838A833EC08981803129F403
:1007200084E090E09B838A8336C01B821A8233C0A8
:100730008981813061F08981823049F089818430FA
:1007400031F08981883019F08981803129F481E084
:1007500090E09B838A831FC01B821A821CC081E0A9
:1007600090E09B838A8317C081E090E09B838A831B
:1007700012C081E090E09B838A830DC081E090E00D
:100780009B838A8308C081E090E09B838A8303C0B7
:100790001B821A8200008A819B81092E000CAA0B01
:1007A000BB0B40E050E026E030E0841B950B28179F
:1007B000390708F457C0835B9F4FFC010C9458091C
:1007C0008091E4019091E50160E00E9462078093CE
:1007D000EA014CC08091E4019091E50161E00E9442
:1007E00062078093EA0142C08091E2019091E301A7
:1007F00060E00E94B5078093EB0138C08091E20170
:100800009091E30161E00E94B5078093EB012EC057
:100810008091030290910402885E9E4FFC019081BA
:100820008091EA019817C1F480910302909104022B
:1008300084589E4FFC0190818091EB01981761F4E0
:100840008091030290910402019690930402809398
:1008500003020E9401080AC00E944D0881E08093B3
:10086000020204C01B821A8201C000002091030210
:1008700030910402809112019091130128173907D9
:1008800074F1109204021092030281E08093E0015F
:1008900081E08093E101809114019091150101960E
:1008A000909315018093140180911401909115018A
:1008B00023E030E0B9010E942209892B81F4809164
:1008C000120190911301843691054CF4809112012C
:1008D000909113010196909313018093120188E285
:1008E00090E02091EA01FC0120838BE290E02091CE
:1008F000EB01FC0120838A819B810F900F900F9068
:10090000DF91CF910895CF93DF9300D0CDB7DEB7BD
:100910009A8389838091E001813019F489819A81D9
:1009200052C080911601909117011816190624F4EF
:1009300080910102882319F489819A8144C08091B1
:10094000160190911701089719F48FEF8093EC012D
:1009500089819A81009719F0019779F011C08091EF
:100960000202813039F481E090E09A838983109209
:10097000020206C01A82198203C01A82198200007C
:1009800089819A81009789F0019781F480911601FD
:100990009091170101979093170180931601809110
:1009A000EC01880F8093EC0101C000008BE290E025
:1009B0002EEEFC01208388E290E02091EC01FC0106
:1009C000208389819A810F900F90DF91CF910895B4
:1009D000CF93DF9300D01F92CDB7DEB79B838A837E
:1009E00083E290E0FC0180818095898380911601EB
:1009F00090911701181619063CF48091010281307C
:100A000019F48A819B8146C08A819B81813091053E
:100A100091F08230910561F1892BD1F50E949908FE
:100A20008981843029F481E090E09B838A8330C0FF
:100A30001B821A822DC088E090E09093170180936A
:100A4000160181E08093E0011092040210920302EB
:100A500081E08093E10183E090E090931301809323
:100A6000120182E090E09B838A831092010210C001
:100A70000E94D6088981843031F41B821A8281E079
:100A80008093010204C082E090E09B838A8300008F
:100A90008A819B810F900F900F90DF91CF910895E5
:100AA0000F931F93CF93DF93CDB7DEB72C970FB67D
:100AB000F894DEBF0FBECDBF8AE290E02FEFFC01BD
:100AC00020838BE290E0FC01108287E290E02FEF20
:100AD000FC01208388E290E0FC01108284E290E037
:100AE000FC01108285E290E02FEFFC01208388E07A
:100AF000E3EFF1E0DE01159601900D928A95E1F7A2
:100B000084E090E09C838B83109209028CED95E049
:100B1000A0E0B0E080930A0290930B02A0930C0235
:100B2000B0930D0280910A0290910B02A0910C02E9
:100B3000B0910D0280930E0290930F02A0931002C9
:100B4000B093110280E992E0909313028093120215
:100B50001092140281E090E0A0E0B0E080931502D2
:100B600090931602A0931702B09318028091150279
:100B700090911602A0911702B09118028093190269
:100B800090931A02A0931B02B0931C0285E393E09A
:100B900090931E0280931D0210921F0281E090E04C
:100BA000A0E0B0E08093200290932102A093220263
:100BB000B093230281E090E0A0E0B0E080932402B3
:100BC00090932502A0932602B093270283E894E035
:100BD000909329028093280282E080932A0281E088
:100BE00090E0A0E0B0E080932B0290932C02A093C1
:100BF0002D02B0932E0281E090E0A0E0B0E080935F
:100C00002F0290933002A0933102B093320288EE0B
:100C100094E090933402809333021A82198261E047
:100C200070E080E090E00E944E010E949E001A82D7
:100C300019829BC089819A81880F991F9E012F5F1D
:100C40003F4F820F931F0496FC0180819181FC012C
:100C5000258136814781508589819A81880F991F26
:100C6000BE016F5F7F4F860F971F0496FC01808146
:100C70009181FC0181819281A381B4812817390778
:100C80004A075B0708F445C089819A81880F991F3C
:100C90009E012F5F3F4F820F931F0496FC0100813E
:100CA000118189819A81880F991F9E012F5F3F4F83
:100CB000820F931F0496FC0180819181FC012185A4
:100CC000328589819A81880F991FAE014F5F5F4FEE
:100CD000840F951F0496FC0180819181FC01808125
:100CE000082E000C990BF9010995F8018083898180
:100CF0009A81880F991F9E012F5F3F4F820F931F8C
:100D00000496FC0180819181FC0115821682178274
:100D1000108689819A81880F991F9E012F5F3F4F0E
:100D2000820F931F0496FC012081318189819A8171
:100D3000880F991FAE014F5F5F4F840F951F049678
:100D4000FC0180819181FC0185819681A781B0851C
:100D50000196A11DB11DF90185839683A783B087F4
:100D600089819A8101969A83898329813A818B812D
:100D70009C812817390708F45DCF00008091FC01A1
:100D80008823E1F31092FC0152CFCF93DF9300D080
:100D9000CDB7DEB7809118010E9429078093180112
:100DA0000E94090780937C0181E090E09A83898307
:100DB0001EC089819A810197885E9E4FFC018081C7
:100DC0000E942907282F89819A81885E9E4FFC0105
:100DD00020830E940907282F89819A8184589E4F79
:100DE000FC01208389819A8101969A83898380916D
:100DF0001201909113019C012F5F3F4F89819A81CD
:100E000082179307B4F200000F900F90DF91CF91FB
:100E10000895CF93DF9300D0CDB7DEB70E94540B77
:100E200023E030E0B9010E9422099A8389838981F5
:100E30009A81892B11F48DEF07C089819A810197DE
:100E400011F48BEF01C087EF0F900F90DF91CF91DE
:100E50000895CF93DF9300D000D0CDB7DEB78C8359
:100E60008C81898323C00E94540B837090789923CE
:100E700024F401978C6F9F6F01969B838A838A81EC
:100E80009B81892B19F480E2898310C08A819B8120
:100E9000019719F480E1898309C08A819B810297B7
:100EA00019F488E0898302C084E0898399818C8168
:100EB0009817C9F289810F900F900F900F90DF91D2
:100EC000CF910895CF93DF9300D000D0CDB7DEB798
:100ED0009B838A836C8380E289838C81882379F465
:100EE0008A819B8101979B838A838A819B811816C3
:100EF000190694F084E090E09B838A830DC08A8178
:100F00009B8101969B838A838A819B81059724F02C
:100F100081E090E09B838A838A819B81019719F409
:100F200080E2898314C08A819B81029719F480E151
:100F300089830DC08A819B81039719F488E0898396
:100F400006C08A819B81049711F484E089838A8199
:100F50009B819093E5018093E40189810F900F902C
:100F60000F900F90DF91CF910895CF93DF9300D032
:100F700000D0CDB7DEB79B838A836C838DEF8983E6
:100F80008C81882379F48A819B8101979B838A8352
:100F90008A819B811816190694F083E090E09B8368
:100FA0008A830DC08A819B8101969B838A838A8173
:100FB0009B81049724F081E090E09B838A838A815F
:100FC0009B81019719F48DEF89830DC08A819B81E4
:100FD000029719F48BEF898306C08A819B8103975E
:100FE00011F487EF89838A819B819093E301809339
:100FF000E20189810F900F900F900F90DF91CF91B8
:101000000895CF93DF9300D0CDB7DEB71A8219824F
:101010008BE290E02DEFFC0120831A82198232C00E
:1010200088E290E024E0FC0120838BE290E02DEF49
:10103000FC0120838BE290E02FEFFC01208388E20B
:1010400090E028E2FC0120838BE290E02BEFFC0192
:1010500020838BE290E02FEFFC01208388E290E078
:1010600020E1FC0120838BE290E027EFFC0120834C
:101070008BE290E02FEFFC01208389819A81019619
:101080009A83898389819A81803395474CF2000045
:101090000F900F90DF91CF910895CF93DF9300D001
:1010A000CDB7DEB71A8219828BE290E02DEFFC01FA
:1010B00020831A82198232C088E290E024E2FC0187
:1010C00020838BE290E02DEFFC0120838BE290E007
:1010D0002FEFFC01208388E290E028E1FC012083CF
:1010E0008BE290E02BEFFC0120838BE290E02FEF6E
:1010F000FC01208388E290E024E2FC0120838BE263
:1011000090E027EFFC0120838BE290E02FEFFC01C1
:10111000208389819A8101969A83898389819A8122
:10112000803395474CF200000F900F90DF91CF91E4
:101130000895CF93DF9300D0CDB7DEB71A8219821E
:101140001A82198228C08BE290E02FEFFC012083E5
:1011500088E290E020E2FC0120838BE290E020EF27
:10116000FC0120838BE290E02FEFFC01208388E2DA
:1011700090E02CE3FC0120838BE290E02FEEFC0159
:1011800020838BE290E02FEFFC01208389819A81FC
:1011900001969A83898389819A81803395479CF24D
:1011A00000000F900F90DF91CF910895CF93DF93C0
:1011B00000D0CDB7DEB71A8219821A82198237C0E1
:1011C0008BE290E02FEFFC01208388E290E02CE39B
:1011D000FC0120838BE290E02AEEFC0120838BE26D
:1011E00090E02FEFFC01208388E290E020E2FC01F8
:1011F00020838BE290E02DEFFC0120838BE290E0D6
:101200002FEFFC01208388E290E024E0FC012083A2
:101210008BE290E027EFFC0120838BE290E02FEF40
:10122000FC01208389819A8101969A83898389812F
:101230009A818033954724F200000F900F90DF9140
:10124000CF91089597FB072E16F4009407D077FDF1
:1012500009D00E94610907FC05D03EF49095819564
:101260009F4F0895709561957F4F0895A1E21A2EC2
:10127000AA1BBB1BFD010DC0AA1FBB1FEE1FFF1F3A
:10128000A217B307E407F50720F0A21BB30BE40B8A
:10129000F50B661F771F881F991F1A9469F76095D1
:1012A0007095809590959B01AC01BD01CF0108958B
:1012B000EE0FFF1F0024001C0BBE0790F691E02DDF
:1012C0000994AA1BBB1B51E107C0AA1FBB1FA6178D
:1012D000B70710F0A61BB70B881F991F5A95A9F7DF
:1012E00080959095BC01CD0108950E94220A08F4D2
:1012F00081E008950E948E090C945D0A0E94560AAE
:1013000058F00E944F0A40F029F45F3F29F00C94F6
:10131000460A51110C94910A0C944C0A0E946E0AD0
:1013200068F39923B1F3552391F3951B550BBB2714
:10133000AA2762177307840738F09F5F5F4F220F59
:10134000331F441FAA1FA9F335D00E2E3AF0E0E850
:1013500032D091505040E695001CCAF72BD0FE2F9A
:1013600029D0660F771F881FBB1F2617370748072E
:10137000AB07B0E809F0BB0B802DBF01FF279358E6
:101380005F4F3AF09E3F510578F00C94460A0C945A
:10139000910A5F3FE4F3983ED4F38695779567957D
:1013A000B795F7959F5FC9F7880F911D969587951B
:1013B00097F90895E1E0660F771F881FBB1F62173A
:1013C00073078407BA0720F0621B730B840BBA0BF8
:1013D000EE1F88F7E09508950E94F3096894B11113
:1013E0000C94910A08950E94760A88F09F5798F00D
:1013F000B92F9927B751B0F0E1F0660F771F881F1A
:10140000991F1AF0BA95C9F714C0B13091F00E9433
:10141000900AB1E008950C94900A672F782F8827DE
:10142000B85F39F0B93FCCF3869577956795B3955A
:10143000D9F73EF490958095709561957F4F8F4FC9
:101440009F4F0895990F0008550FAA0BE0E8FEEF93
:1014500016161706E807F907C0F012161306E40778
:10146000F50798F0621B730B840B950B39F40A2671
:1014700061F0232B242B252B21F408950A2609F44F
:10148000A140A6958FEF811D811D089597F99F6753
:1014900080E870E060E008959FEF80EC08950024FC
:1014A0000A941616170618060906089500240A94C9
:1014B00012161306140605060895092E0394000C4F
:1014C00011F4882352F0BB0F40F4BF2B11F460FFDE
:1014D00004C06F5F7F4F8F4F9F4F089557FD905807
:1014E000440F551F59F05F3F71F04795880F97FBE8
:1014F000991F61F09F3F79F08795089512161306A2
:101500001406551FF2CF4695F1DF08C016161706D0
:101510001806991FF1CF8695710561050894089505
:10152000E894BB2766277727CB0197F908950E9497
:10153000220A08F48FEF08950E94AF0A0C945D0A06
:101540000E944F0A38F00E94560A20F0952311F0AD
:101550000C94460A0C944C0A11240C94910A0E9493
:101560006E0A70F3959FC1F3950F50E0551F629F6F
:10157000F001729FBB27F00DB11D639FAA27F00DEC
:10158000B11DAA1F649F6627B00DA11D661F829F13
:101590002227B00DA11D621F739FB00DA11D621FF8
:1015A000839FA00D611D221F749F3327A00D611D15
:1015B000231F849F600D211D822F762F6A2F1124F7
:1015C0009F5750409AF0F1F088234AF0EE0FFF1F2A
:1015D000BB1F661F771F881F91505040A9F79E3F81
:1015E000510580F00C94460A0C94910A5F3FE4F395
:1015F000983ED4F3869577956795B795F795E795D7
:101600009F5FC1F7FE2B880F911D9695879597F9DF
:1016100008958F929F92AF92BF92CF92DF92EF92F6
:10162000FF92CF93DF93EC01688179818A819B815E
:10163000611571058105910521F464E279ED8BE571
:1016400097E02DE133EF41E050E00E94630B490148
:101650005A019B01AC01A7EAB1E40E94820B6B0125
:101660007C01ACEEB4EFA50194010E94900BDC016B
:10167000CB018C0D9D1DAE1DBF1DB7FF03C0019793
:10168000A109B04888839983AA83BB839F77DF91A0
:10169000CF91FF90EF90DF90CF90BF90AF909F9051
:1016A0008F9008950C94090B8DEE91E00C94090B2A
:1016B000A0E0B0E08093ED019093EE01A093EF01E4
:1016C000B093F0010895052E97FB1EF400940E943C
:1016D0007A0B57FD07D00E94360907FC03D04EF461
:1016E0000C947A0B50954095309521953F4F4F4F74
:1016F0005F4F089590958095709561957F4F8F4FBE
:101700009F4F08950E94950BA59F900DB49F900D3B
:10171000A49F800D911D11240895B7FF0C94820B96
:101720000E94820B821B930B0895A29FB001B39F6E
:10173000C001A39F700D811D1124911DB29F700DDA
:0C174000811D1124911D0895F894FFCF25
:10174C000000000200000000750000000000010015
:10175C0000000300010008002020202020000000D1
:10176C00000000000000000000000000000000006D
:10177C00000000000000000000000000000000005D
:10178C00000000000000000000000000000000004D
:10179C00000000000000000000000000000000003D
:1017AC00000000000000000000000000000000002D
:1017BC00000000000000000000000000FDFDFDFD29
:1017CC00FD00000000000000000000000000000010
:1017DC0000000000000000000000000000000000FD
:1017EC0000000000000000000000000000000000ED
:1017FC0000000000000000000000000000000000DD
:10180C0000000000000000000000000000000000CC
:10181C0000000000000000000000000000000000BC
:10182C00010101000100FFFF20FD20FDFF01000070
:0C183C00006400090214021F022A0200CE
:00000001FF
